:020000040000FA
:020000007D2859
:02000800B72817
:06000A00820700344534BA
:1000100001345434FF34203482070034493402342C
:10002000413401344E3403344D34FF3420348207DC
:1000300000345334043455340234523406345734C3
:100040000134443405344B340334473407344F34DB
:10005000FF342034820700344834083456340434E2
:10006000463402344C34063450340E344A340134AD
:10007000423409345834053443340D34593403348C
:100080005A340B345134FF34203482070034353471
:1000900010343434183433341C3432341E34313494
:1000A0001F343034013436340334373407343834B1
:1000B0000F34393411343D3409342F340234773459
:1000C00016342834FF3420348207283423340C3487
:1000D0003F3421342D342A342E3433342C342D340F
:1000E00029342A343B34123422341E3427340D345C
:0600F0005F34FF342034F0
:0400F600003400349E
:0600FA00CB201221592267
:1001000001210121851C8528892886226400851CFF
:100110008628051EA128201881282014A010A301DC
:1001200067233B082402031C8028CE22DB22051D06
:1001300080283C082402031C80282030A9004E217E
:100140008028A01CAC28C8302402031C8128A401EC
:10015000DB220830B6008128A0142010A4015B2304
:10016000BD0A0F303D0203183D230B238028A10058
:10017000030EA200A30AA40AA60A0A302602031C40
:10018000C328A601A50A643081000B11220E83004A
:10019000A10E210E090007309F00850186018316FC
:1001A000FF30850000308600011481100115811197
:1001B00081128312643081008B168B17BD01A00160
:1001C000A0140F30BA00BB002630BC00FF30B000D6
:1001D000B100B200B300B400B500A301A401A501B1
:1001E000A601B801B701B9010830B60008007D309A
:1001F000A7006430A8006400A80BFB28A70BF9280F
:1002000008003030A7001930A8006400A80B0529A9
:10021000A70B032908003230A70064000000A70BD9
:100220000D290800383086008611F7203830860006
:100230008611F720383086008611F7202830860096
:100240008611F7202030A9004121F7200730A900AE
:100250004121F7200C30A9004121F7200130A900ED
:100260004121F72028308038A9004121F7200800DB
:100270002B3084000008A9004E21840AAA0B3A29D9
:1002800008002908F0390838860086110B21290E4C
:10029000F0390838860086110B2108002908F0394A
:1002A0000A38860086110B21290EF0390A3886009B
:1002B00086110B210800AB012C08AA00AD036400D5
:1002C0002A08AC07031C6529AB0AAD0B5F2908009F
:1002D000AA016400AA0A2D08AC020318692901309A
:1002E000AB02031869292D08AC07AA032A08AB0042
:1002F00008002E08AF00AA016430AF02031882295B
:10030000AF078429AA0A7D292A083038AB000A30B1
:10031000AA01AF0203188E29AF079029AA0A8929DA
:100320002A083038AC002F083038AD00080003012F
:10033000AA000520AB00FF302B02031DA1292A30A3
:10034000AB292B0837020319A8292A08023E98294D
:100350002A08013E0520AF0008000301AA000C2076
:10036000AB00FF302B02031DB7292A30C1292B080F
:1003700037020319BE292A08023EAE292A08013E87
:100380000C20AF0008000301AA001720AB00FF30CB
:100390002B02031DCD292A30D7292B083702031938
:1003A000D4292A08023EC4292A08013E1720AF009A
:1003B00008000301AA002A20AB00FF302B02031D16
:1003C000E3292A30ED292B0837020319EA292A08E4
:1003D000023EDA292A08013E2A20AF000800030164
:1003E000AA004520AB00FF302B02031DF9292A305B
:1003F000032A2B0837020319002A2A08023EF02993
:100400002A08013E4520AF0008000301AA0064202D
:10041000AB00FF302B02031D0F2A2A30192A2B08AC
:1004200037020319162A2A08023E062A2A08013E24
:100430006420AF000800310832020318252A310871
:10044000AB003208B1002B08B200300831020318AB
:10045000392A3008AB003108B0002B08B100310850
:1004600032020318392A3108AB003208B1002B08D8
:10047000B2000800340835020318442A3408AB00DF
:100480003508B4002B08B500330834020318582A85
:100490003308AB003408B3002B08B400340835022D
:1004A0000318582A3408AB003508B4002B08B500EF
:1004B00008002030AB004330AC005730AD00203096
:1004C000AE000430AA0038214430AB006530AC00E7
:1004D0006330AD006F30AE000430AA0038216430C4
:1004E000AB006530AC007230AD002030AE0004309F
:1004F000AA0038212030AB002030AC007E30AD00A7
:100500002030AE000430AA00382108002030A900B5
:100510000E30283CAA004E21AA0B8B2A3908AE00C7
:1005200079212B080F39031D972A2030AB000330A7
:10053000AA0038212030AB006330AC006830AD0039
:100540006130AE000430AA0038217230AB002F3089
:10055000AC006D30AD006930AE000430AA00382127
:100560006E30AB002030AC002030AD000330AA006C
:10057000382108000A30AC000830AD005B213C3067
:10058000AD005B212508AD0068212C082C07250251
:100590000318CB2AAB0A2B08B90008000830360232
:1005A000031CD92AB601B8080319D72ABA22A50113
:1005B000A601B60A08002030AF00B80803190800E9
:1005C0000130B802031DE62A9721052B0230B8023C
:1005D000031DEC2AAD21052B0430B802031DF22ABD
:1005E000C321052B0830B802031DF82AD921052B99
:1005F0001030B802031DFE2AEF21052B2030B8026F
:10060000031D042B0522052B2A30AF00A900B801D9
:10061000B7014E2108003818132B38143A0823026A
:10062000031837143C2BB8181B2BB8143A082302B4
:100630000318B7143C2B3819232B38153A0823021A
:10064000031837153C2BB8192B2BB8153A08230281
:100650000318B7153C2B381A332B38163A082302E7
:10066000031837163C2BB81A3B2BB8163A0823024E
:100670000318B7163C2B381708003208AC000230BC
:10068000AD005B212C08BA003508AC000230AD008B
:100690005B212C08BB003508AC000530AD005B21A8
:1006A0002C08BC00BD01FF30B000B100B200B300A7
:1006B000B400B500080003302302031C662B230896
:1006C0003202031C662B2308B2001B2208000330F1
:1006D0002402031C722B24083502031C722B2408ED
:0606E000B5003A220800FB
:02400E00213F50
:00000001FF
