:020000008F2847
:080008007B2882070034453417
:1000100001345434FF34203482070034493402342C
:10002000413401344E3403344D34FF3420348207DC
:1000300000345334043455340234523406345734C3
:100040000134443405344B340334473407344F34DB
:10005000FF342034820700344834083456340434E2
:10006000463402344C34063450340E344A340134AD
:10007000423409345834053443340D34593403348C
:100080005A340B345134FF34203482070034353471
:1000900010343434183433341C3432341E34313494
:1000A0001F343034013436340334373407343834B1
:1000B0000F34393411343D3409342F340234773459
:1000C00016342834FF3420348207283423340C3487
:1000D0003F3421342D342A342E3433342C342D340F
:1000E00029342A343B34123422341E3427340D345C
:1000F0005F34FF342034A200030EA300920A930A57
:10010000950A0A301502031C87289501940A643069
:1001100081000B11230E8300A20E220E090085011F
:1001200086018316FF30850000308600011481109F
:100130000115811181128312643081008B168B1797
:10014000A101A001A0140F309C009D0026309E004C
:10015000FF3096009700980099009A009B0092014A
:10016000930191019001940195019F0108308E0047
:10017000B221D8215C235C23851CBF28C3282322FD
:100180006400851CC028051EDB282018BB2820140D
:10019000A0109201C7221D081302031CBA28F120E7
:1001A000FE20051DBA281E081302031CBA282030A1
:1001B0008F004523BA28A01CE628C8301302031C70
:1001C000BB289301FE2008308E00BB28A01420100D
:1001D0009301BB22A10A0F30210203188922572262
:1001E000BA2808300E02031CFC288E01910803195E
:1001F000FA28A722940195018E0A08002030A40055
:1002000091080319080001309102031D09292E21CC
:10021000282902309102031D0F2944212829043086
:100220009102031D15295A21282908309102031D26
:100230001B297021282910309102031D21298621B4
:10024000282920309102031D27299C2128292A30A2
:10025000A4008F0091019001452308000301A5002F
:100260000520A600FF302602031D38292A30422926
:100270002608100203193F292508023E2F292508C8
:10028000013E0520A40008000301A5000C20A600E3
:10029000FF302602031D4E292A3058292608100255
:1002A000031955292508023E45292508013E0C2041
:1002B000A40008000301A5001720A600FF302602B5
:1002C000031D64292A306E292608100203196B29A0
:1002D0002508023E5B292508013E1720A4000800DE
:1002E0000301A5002A20A600FF302602031D7A295B
:1002F0002A30842926081002031981292508023E84
:1003000071292508013E2A20A40008000301A50048
:100310004520A600FF302602031D90292A309A2985
:1003200026081002031997292508023E8729250867
:10033000013E4520A40008000301A5006420A6009A
:10034000FF302602031DA6292A30B02926081002F4
:100350000319AD292508023E9D292508013E642088
:10036000A4000800383086008611522338308600F9
:100370008611522338308600861152232830860099
:100380008611522320308F003823522307308F00EC
:10039000382352230C308F003823522301308F0032
:1003A00038235223283080388F0038235223080006
:1003B0002030A6004330A7005730A8002030A90005
:1003C0000430A5002F234430A6006530A700633019
:1003D000A8006F30A9000430A5002F236430A600C8
:1003E0006530A7007230A8002030A9000430A500B5
:1003F0002F232030A6002030A7007E30A800203018
:10040000A9000430A5002F2308002908A400A50195
:100410006430A40203180E2AA407102AA50A092A88
:1004200025083038A6000A30A501A40203181A2AAC
:10043000A4071C2AA50A152A25083038A700240875
:100440003038A800080020308F000E30283CA5006E
:100450004523A50B282A1F08A900052226080F39C5
:10046000031D342A2030A6000330A5002F2320309E
:10047000A6006330A7006830A8006130A9000430EE
:10048000A5002F237230A6002F30A7006D30A800E2
:100490006930A9000430A5002F236E30A60020305B
:1004A000A7002030A8000330A5002F230800111852
:1004B0005F2A11141C08120203181014882A9118BC
:1004C000672A91141C08120203189014882A111923
:1004D0006F2A11151C08120203181015882A911989
:1004E000772A91151C08120203189015882A111AF0
:1004F0007F2A11161C08120203181016882A911A56
:10050000872A91161C08120203189016882A1117C0
:1005100008001808A7000230A800112327089C0033
:100520001B08A7000230A800112327089D001B0804
:10053000A7000530A800112327089E00A101FF3065
:1005400096009700980099009A009B0008000A30D6
:10055000A7000830A80011233C30A800112314087C
:10056000A8001E232708270714020318B82AA60A82
:1005700026089F00080003301202031CC62A120836
:100580001802031CC62A12089800D3220800033060
:100590001302031CD22A13081B02031CD22A1308BD
:1005A0009B00F2220800170818020318DD2A17081A
:1005B000A6001808970026089800160817020318C6
:1005C000F12A1608A60017089600260897001708B3
:1005D00018020318F12A1708A60018089700260821
:1005E000980008001A081B020318FC2A1A08A60023
:1005F0001B089A0026089B0019081A020318102BE2
:100600001908A6001A08990026089A001A081B0261
:100610000318102B1A08A6001B089A0026089B0036
:100620000800A6012708A500A80364002508A7075D
:10063000031C1B2BA60AA80B152B0800A5016400A0
:10064000A50A2808A70203181F2B0130A6020318C9
:100650001F2B2808A707A5032508A6000800263099
:10066000840000088F004523840AA50B312B080065
:100670000F08F03908388600861166230F0EF0390E
:10068000083886008611662308000F08F0390A38FA
:100690008600861166230F0EF0390A38860086110F
:1006A000662308007D308C0064308D0064008D0B63
:1006B000562B8C0B542B080030308C0019308D00D9
:1006C00064008D0B602B8C0B5E2B080032308C008D
:0A06D000640000008C0B682B08008A
:02400E00F93F78
:00000001FF
